{
	"contracts/ExampleMapping.sol": {
		"ExampleMapping": {
			"abi": [
				{
					"inputs": [
						{
							"internalType": "address",
							"name": "",
							"type": "address"
						}
					],
					"name": "myAddressMapping",
					"outputs": [
						{
							"internalType": "bool",
							"name": "",
							"type": "bool"
						}
					],
					"stateMutability": "view",
					"type": "function"
				},
				{
					"inputs": [
						{
							"internalType": "uint256",
							"name": "",
							"type": "uint256"
						}
					],
					"name": "myMapping",
					"outputs": [
						{
							"internalType": "bool",
							"name": "",
							"type": "bool"
						}
					],
					"stateMutability": "view",
					"type": "function"
				},
				{
					"inputs": [],
					"name": "setMyAdressToTrue",
					"outputs": [],
					"stateMutability": "nonpayable",
					"type": "function"
				},
				{
					"inputs": [
						{
							"internalType": "uint256",
							"name": "_key1",
							"type": "uint256"
						},
						{
							"internalType": "uint256",
							"name": "_key2",
							"type": "uint256"
						},
						{
							"internalType": "bool",
							"name": "_value",
							"type": "bool"
						}
					],
					"name": "setUintAdress",
					"outputs": [],
					"stateMutability": "nonpayable",
					"type": "function"
				},
				{
					"inputs": [
						{
							"internalType": "uint256",
							"name": "_index",
							"type": "uint256"
						}
					],
					"name": "setValue",
					"outputs": [],
					"stateMutability": "nonpayable",
					"type": "function"
				},
				{
					"inputs": [
						{
							"internalType": "uint256",
							"name": "",
							"type": "uint256"
						},
						{
							"internalType": "uint256",
							"name": "",
							"type": "uint256"
						}
					],
					"name": "unitBoolMap",
					"outputs": [
						{
							"internalType": "bool",
							"name": "",
							"type": "bool"
						}
					],
					"stateMutability": "view",
					"type": "function"
				}
			],
			"devdoc": {
				"kind": "dev",
				"methods": {},
				"version": 1
			},
			"evm": {
				"assembly": "    /* \"contracts/ExampleMapping.sol\":57:587  contract ExampleMapping{... */\n  mstore(0x40, 0x80)\n  callvalue\n  dup1\n  iszero\n  tag_1\n  jumpi\n  revert(0x00, 0x00)\ntag_1:\n  pop\n  dataSize(sub_0)\n  dup1\n  dataOffset(sub_0)\n  0x00\n  codecopy\n  0x00\n  return\nstop\n\nsub_0: assembly {\n        /* \"contracts/ExampleMapping.sol\":57:587  contract ExampleMapping{... */\n      mstore(0x40, 0x80)\n      callvalue\n      dup1\n      iszero\n      tag_1\n      jumpi\n      revert(0x00, 0x00)\n    tag_1:\n      pop\n      jumpi(tag_2, lt(calldatasize, 0x04))\n      shr(0xe0, calldataload(0x00))\n      dup1\n      0x399a5252\n      eq\n      tag_3\n      jumpi\n      dup1\n      0x53a403c7\n      eq\n      tag_4\n      jumpi\n      dup1\n      0x55241077\n      eq\n      tag_5\n      jumpi\n      dup1\n      0x7c668844\n      eq\n      tag_6\n      jumpi\n      dup1\n      0x9ed326ac\n      eq\n      tag_7\n      jumpi\n      dup1\n      0xb92ba3b8\n      eq\n      tag_8\n      jumpi\n    tag_2:\n      revert(0x00, 0x00)\n        /* \"contracts/ExampleMapping.sol\":186:245  mapping (uint => mapping (uint => bool)) public unitBoolMap */\n    tag_3:\n      tag_9\n      0x04\n      dup1\n      calldatasize\n      sub\n      dup2\n      add\n      swap1\n      tag_10\n      swap2\n      swap1\n      tag_11\n      jump\t// in\n    tag_10:\n      tag_12\n      jump\t// in\n    tag_9:\n      mload(0x40)\n      tag_13\n      swap2\n      swap1\n      tag_14\n      jump\t// in\n    tag_13:\n      mload(0x40)\n      dup1\n      swap2\n      sub\n      swap1\n      return\n        /* \"contracts/ExampleMapping.sol\":466:585  function setUintAdress(uint _key1, uint _key2, bool _value) public {... */\n    tag_4:\n      tag_15\n      0x04\n      dup1\n      calldatasize\n      sub\n      dup2\n      add\n      swap1\n      tag_16\n      swap2\n      swap1\n      tag_17\n      jump\t// in\n    tag_16:\n      tag_18\n      jump\t// in\n    tag_15:\n      stop\n        /* \"contracts/ExampleMapping.sol\":251:330  function setValue(uint _index) public {... */\n    tag_5:\n      tag_19\n      0x04\n      dup1\n      calldatasize\n      sub\n      dup2\n      add\n      swap1\n      tag_20\n      swap2\n      swap1\n      tag_21\n      jump\t// in\n    tag_20:\n      tag_22\n      jump\t// in\n    tag_19:\n      stop\n        /* \"contracts/ExampleMapping.sol\":86:125  mapping (uint => bool) public myMapping */\n    tag_6:\n      tag_23\n      0x04\n      dup1\n      calldatasize\n      sub\n      dup2\n      add\n      swap1\n      tag_24\n      swap2\n      swap1\n      tag_21\n      jump\t// in\n    tag_24:\n      tag_25\n      jump\t// in\n    tag_23:\n      mload(0x40)\n      tag_26\n      swap2\n      swap1\n      tag_14\n      jump\t// in\n    tag_26:\n      mload(0x40)\n      dup1\n      swap2\n      sub\n      swap1\n      return\n        /* \"contracts/ExampleMapping.sol\":335:461  function setMyAdressToTrue() public{... */\n    tag_7:\n      tag_27\n      tag_28\n      jump\t// in\n    tag_27:\n      stop\n        /* \"contracts/ExampleMapping.sol\":131:180  mapping (address => bool) public myAddressMapping */\n    tag_8:\n      tag_29\n      0x04\n      dup1\n      calldatasize\n      sub\n      dup2\n      add\n      swap1\n      tag_30\n      swap2\n      swap1\n      tag_31\n      jump\t// in\n    tag_30:\n      tag_32\n      jump\t// in\n    tag_29:\n      mload(0x40)\n      tag_33\n      swap2\n      swap1\n      tag_14\n      jump\t// in\n    tag_33:\n      mload(0x40)\n      dup1\n      swap2\n      sub\n      swap1\n      return\n        /* \"contracts/ExampleMapping.sol\":186:245  mapping (uint => mapping (uint => bool)) public unitBoolMap */\n    tag_12:\n      mstore(0x20, 0x02)\n      dup2\n      0x00\n      mstore\n      mstore(0x20, keccak256(0x00, 0x40))\n      dup1\n      0x00\n      mstore\n      keccak256(0x00, 0x40)\n      0x00\n      swap2\n      pop\n      swap2\n      pop\n      swap1\n      sload\n      swap1\n      0x0100\n      exp\n      swap1\n      div\n      0xff\n      and\n      dup2\n      jump\t// out\n        /* \"contracts/ExampleMapping.sol\":466:585  function setUintAdress(uint _key1, uint _key2, bool _value) public {... */\n    tag_18:\n        /* \"contracts/ExampleMapping.sol\":572:578  _value */\n      dup1\n        /* \"contracts/ExampleMapping.sol\":543:554  unitBoolMap */\n      0x02\n        /* \"contracts/ExampleMapping.sol\":543:561  unitBoolMap[_key1] */\n      0x00\n        /* \"contracts/ExampleMapping.sol\":555:560  _key1 */\n      dup6\n        /* \"contracts/ExampleMapping.sol\":543:561  unitBoolMap[_key1] */\n      dup2\n      mstore\n      0x20\n      add\n      swap1\n      dup2\n      mstore\n      0x20\n      add\n      0x00\n      keccak256\n        /* \"contracts/ExampleMapping.sol\":543:568  unitBoolMap[_key1][_key2] */\n      0x00\n        /* \"contracts/ExampleMapping.sol\":562:567  _key2 */\n      dup5\n        /* \"contracts/ExampleMapping.sol\":543:568  unitBoolMap[_key1][_key2] */\n      dup2\n      mstore\n      0x20\n      add\n      swap1\n      dup2\n      mstore\n      0x20\n      add\n      0x00\n      keccak256\n      0x00\n        /* \"contracts/ExampleMapping.sol\":543:578  unitBoolMap[_key1][_key2]  = _value */\n      0x0100\n      exp\n      dup2\n      sload\n      dup2\n      0xff\n      mul\n      not\n      and\n      swap1\n      dup4\n      iszero\n      iszero\n      mul\n      or\n      swap1\n      sstore\n      pop\n        /* \"contracts/ExampleMapping.sol\":466:585  function setUintAdress(uint _key1, uint _key2, bool _value) public {... */\n      pop\n      pop\n      pop\n      jump\t// out\n        /* \"contracts/ExampleMapping.sol\":251:330  function setValue(uint _index) public {... */\n    tag_22:\n        /* \"contracts/ExampleMapping.sol\":319:323  true */\n      0x01\n        /* \"contracts/ExampleMapping.sol\":299:308  myMapping */\n      0x00\n        /* \"contracts/ExampleMapping.sol\":299:316  myMapping[_index] */\n      0x00\n        /* \"contracts/ExampleMapping.sol\":309:315  _index */\n      dup4\n        /* \"contracts/ExampleMapping.sol\":299:316  myMapping[_index] */\n      dup2\n      mstore\n      0x20\n      add\n      swap1\n      dup2\n      mstore\n      0x20\n      add\n      0x00\n      keccak256\n      0x00\n        /* \"contracts/ExampleMapping.sol\":299:323  myMapping[_index] = true */\n      0x0100\n      exp\n      dup2\n      sload\n      dup2\n      0xff\n      mul\n      not\n      and\n      swap1\n      dup4\n      iszero\n      iszero\n      mul\n      or\n      swap1\n      sstore\n      pop\n        /* \"contracts/ExampleMapping.sol\":251:330  function setValue(uint _index) public {... */\n      pop\n      jump\t// out\n        /* \"contracts/ExampleMapping.sol\":86:125  mapping (uint => bool) public myMapping */\n    tag_25:\n      mstore(0x20, 0x00)\n      dup1\n      0x00\n      mstore\n      keccak256(0x00, 0x40)\n      0x00\n      swap2\n      pop\n      sload\n      swap1\n      0x0100\n      exp\n      swap1\n      div\n      0xff\n      and\n      dup2\n      jump\t// out\n        /* \"contracts/ExampleMapping.sol\":335:461  function setMyAdressToTrue() public{... */\n    tag_28:\n        /* \"contracts/ExampleMapping.sol\":411:415  true */\n      0x01\n        /* \"contracts/ExampleMapping.sol\":380:396  myAddressMapping */\n      dup1\n        /* \"contracts/ExampleMapping.sol\":380:408  myAddressMapping[msg.sender] */\n      0x00\n        /* \"contracts/ExampleMapping.sol\":397:407  msg.sender */\n      caller\n        /* \"contracts/ExampleMapping.sol\":380:408  myAddressMapping[msg.sender] */\n      0xffffffffffffffffffffffffffffffffffffffff\n      and\n      0xffffffffffffffffffffffffffffffffffffffff\n      and\n      dup2\n      mstore\n      0x20\n      add\n      swap1\n      dup2\n      mstore\n      0x20\n      add\n      0x00\n      keccak256\n      0x00\n        /* \"contracts/ExampleMapping.sol\":380:415  myAddressMapping[msg.sender] = true */\n      0x0100\n      exp\n      dup2\n      sload\n      dup2\n      0xff\n      mul\n      not\n      and\n      swap1\n      dup4\n      iszero\n      iszero\n      mul\n      or\n      swap1\n      sstore\n      pop\n        /* \"contracts/ExampleMapping.sol\":335:461  function setMyAdressToTrue() public{... */\n      jump\t// out\n        /* \"contracts/ExampleMapping.sol\":131:180  mapping (address => bool) public myAddressMapping */\n    tag_32:\n      mstore(0x20, 0x01)\n      dup1\n      0x00\n      mstore\n      keccak256(0x00, 0x40)\n      0x00\n      swap2\n      pop\n      sload\n      swap1\n      0x0100\n      exp\n      swap1\n      div\n      0xff\n      and\n      dup2\n      jump\t// out\n        /* \"#utility.yul\":88:205   */\n    tag_38:\n        /* \"#utility.yul\":197:198   */\n      0x00\n        /* \"#utility.yul\":194:195   */\n      0x00\n        /* \"#utility.yul\":187:199   */\n      revert\n        /* \"#utility.yul\":334:411   */\n    tag_40:\n        /* \"#utility.yul\":371:378   */\n      0x00\n        /* \"#utility.yul\":400:405   */\n      dup2\n        /* \"#utility.yul\":389:405   */\n      swap1\n      pop\n        /* \"#utility.yul\":334:411   */\n      swap2\n      swap1\n      pop\n      jump\t// out\n        /* \"#utility.yul\":417:539   */\n    tag_41:\n        /* \"#utility.yul\":490:514   */\n      tag_57\n        /* \"#utility.yul\":508:513   */\n      dup2\n        /* \"#utility.yul\":490:514   */\n      tag_40\n      jump\t// in\n    tag_57:\n        /* \"#utility.yul\":483:488   */\n      dup2\n        /* \"#utility.yul\":480:515   */\n      eq\n        /* \"#utility.yul\":470:533   */\n      tag_58\n      jumpi\n        /* \"#utility.yul\":529:530   */\n      0x00\n        /* \"#utility.yul\":526:527   */\n      0x00\n        /* \"#utility.yul\":519:531   */\n      revert\n        /* \"#utility.yul\":470:533   */\n    tag_58:\n        /* \"#utility.yul\":417:539   */\n      pop\n      jump\t// out\n        /* \"#utility.yul\":545:684   */\n    tag_42:\n        /* \"#utility.yul\":591:596   */\n      0x00\n        /* \"#utility.yul\":629:635   */\n      dup2\n        /* \"#utility.yul\":616:636   */\n      calldataload\n        /* \"#utility.yul\":607:636   */\n      swap1\n      pop\n        /* \"#utility.yul\":645:678   */\n      tag_60\n        /* \"#utility.yul\":672:677   */\n      dup2\n        /* \"#utility.yul\":645:678   */\n      tag_41\n      jump\t// in\n    tag_60:\n        /* \"#utility.yul\":545:684   */\n      swap3\n      swap2\n      pop\n      pop\n      jump\t// out\n        /* \"#utility.yul\":690:1164   */\n    tag_11:\n        /* \"#utility.yul\":758:764   */\n      0x00\n        /* \"#utility.yul\":766:772   */\n      0x00\n        /* \"#utility.yul\":815:817   */\n      0x40\n        /* \"#utility.yul\":803:812   */\n      dup4\n        /* \"#utility.yul\":794:801   */\n      dup6\n        /* \"#utility.yul\":790:813   */\n      sub\n        /* \"#utility.yul\":786:818   */\n      slt\n        /* \"#utility.yul\":783:902   */\n      iszero\n      tag_62\n      jumpi\n        /* \"#utility.yul\":821:900   */\n      tag_63\n      tag_38\n      jump\t// in\n    tag_63:\n        /* \"#utility.yul\":783:902   */\n    tag_62:\n        /* \"#utility.yul\":941:942   */\n      0x00\n        /* \"#utility.yul\":966:1019   */\n      tag_64\n        /* \"#utility.yul\":1011:1018   */\n      dup6\n        /* \"#utility.yul\":1002:1008   */\n      dup3\n        /* \"#utility.yul\":991:1000   */\n      dup7\n        /* \"#utility.yul\":987:1009   */\n      add\n        /* \"#utility.yul\":966:1019   */\n      tag_42\n      jump\t// in\n    tag_64:\n        /* \"#utility.yul\":956:1019   */\n      swap3\n      pop\n        /* \"#utility.yul\":912:1029   */\n      pop\n        /* \"#utility.yul\":1068:1070   */\n      0x20\n        /* \"#utility.yul\":1094:1147   */\n      tag_65\n        /* \"#utility.yul\":1139:1146   */\n      dup6\n        /* \"#utility.yul\":1130:1136   */\n      dup3\n        /* \"#utility.yul\":1119:1128   */\n      dup7\n        /* \"#utility.yul\":1115:1137   */\n      add\n        /* \"#utility.yul\":1094:1147   */\n      tag_42\n      jump\t// in\n    tag_65:\n        /* \"#utility.yul\":1084:1147   */\n      swap2\n      pop\n        /* \"#utility.yul\":1039:1157   */\n      pop\n        /* \"#utility.yul\":690:1164   */\n      swap3\n      pop\n      swap3\n      swap1\n      pop\n      jump\t// out\n        /* \"#utility.yul\":1170:1260   */\n    tag_43:\n        /* \"#utility.yul\":1204:1211   */\n      0x00\n        /* \"#utility.yul\":1247:1252   */\n      dup2\n        /* \"#utility.yul\":1240:1253   */\n      iszero\n        /* \"#utility.yul\":1233:1254   */\n      iszero\n        /* \"#utility.yul\":1222:1254   */\n      swap1\n      pop\n        /* \"#utility.yul\":1170:1260   */\n      swap2\n      swap1\n      pop\n      jump\t// out\n        /* \"#utility.yul\":1266:1375   */\n    tag_44:\n        /* \"#utility.yul\":1347:1368   */\n      tag_68\n        /* \"#utility.yul\":1362:1367   */\n      dup2\n        /* \"#utility.yul\":1347:1368   */\n      tag_43\n      jump\t// in\n    tag_68:\n        /* \"#utility.yul\":1342:1345   */\n      dup3\n        /* \"#utility.yul\":1335:1369   */\n      mstore\n        /* \"#utility.yul\":1266:1375   */\n      pop\n      pop\n      jump\t// out\n        /* \"#utility.yul\":1381:1591   */\n    tag_14:\n        /* \"#utility.yul\":1468:1472   */\n      0x00\n        /* \"#utility.yul\":1506:1508   */\n      0x20\n        /* \"#utility.yul\":1495:1504   */\n      dup3\n        /* \"#utility.yul\":1491:1509   */\n      add\n        /* \"#utility.yul\":1483:1509   */\n      swap1\n      pop\n        /* \"#utility.yul\":1519:1584   */\n      tag_70\n        /* \"#utility.yul\":1581:1582   */\n      0x00\n        /* \"#utility.yul\":1570:1579   */\n      dup4\n        /* \"#utility.yul\":1566:1583   */\n      add\n        /* \"#utility.yul\":1557:1563   */\n      dup5\n        /* \"#utility.yul\":1519:1584   */\n      tag_44\n      jump\t// in\n    tag_70:\n        /* \"#utility.yul\":1381:1591   */\n      swap3\n      swap2\n      pop\n      pop\n      jump\t// out\n        /* \"#utility.yul\":1597:1713   */\n    tag_45:\n        /* \"#utility.yul\":1667:1688   */\n      tag_72\n        /* \"#utility.yul\":1682:1687   */\n      dup2\n        /* \"#utility.yul\":1667:1688   */\n      tag_43\n      jump\t// in\n    tag_72:\n        /* \"#utility.yul\":1660:1665   */\n      dup2\n        /* \"#utility.yul\":1657:1689   */\n      eq\n        /* \"#utility.yul\":1647:1707   */\n      tag_73\n      jumpi\n        /* \"#utility.yul\":1703:1704   */\n      0x00\n        /* \"#utility.yul\":1700:1701   */\n      0x00\n        /* \"#utility.yul\":1693:1705   */\n      revert\n        /* \"#utility.yul\":1647:1707   */\n    tag_73:\n        /* \"#utility.yul\":1597:1713   */\n      pop\n      jump\t// out\n        /* \"#utility.yul\":1719:1852   */\n    tag_46:\n        /* \"#utility.yul\":1762:1767   */\n      0x00\n        /* \"#utility.yul\":1800:1806   */\n      dup2\n        /* \"#utility.yul\":1787:1807   */\n      calldataload\n        /* \"#utility.yul\":1778:1807   */\n      swap1\n      pop\n        /* \"#utility.yul\":1816:1846   */\n      tag_75\n        /* \"#utility.yul\":1840:1845   */\n      dup2\n        /* \"#utility.yul\":1816:1846   */\n      tag_45\n      jump\t// in\n    tag_75:\n        /* \"#utility.yul\":1719:1852   */\n      swap3\n      swap2\n      pop\n      pop\n      jump\t// out\n        /* \"#utility.yul\":1858:2471   */\n    tag_17:\n        /* \"#utility.yul\":1932:1938   */\n      0x00\n        /* \"#utility.yul\":1940:1946   */\n      0x00\n        /* \"#utility.yul\":1948:1954   */\n      0x00\n        /* \"#utility.yul\":1997:1999   */\n      0x60\n        /* \"#utility.yul\":1985:1994   */\n      dup5\n        /* \"#utility.yul\":1976:1983   */\n      dup7\n        /* \"#utility.yul\":1972:1995   */\n      sub\n        /* \"#utility.yul\":1968:2000   */\n      slt\n        /* \"#utility.yul\":1965:2084   */\n      iszero\n      tag_77\n      jumpi\n        /* \"#utility.yul\":2003:2082   */\n      tag_78\n      tag_38\n      jump\t// in\n    tag_78:\n        /* \"#utility.yul\":1965:2084   */\n    tag_77:\n        /* \"#utility.yul\":2123:2124   */\n      0x00\n        /* \"#utility.yul\":2148:2201   */\n      tag_79\n        /* \"#utility.yul\":2193:2200   */\n      dup7\n        /* \"#utility.yul\":2184:2190   */\n      dup3\n        /* \"#utility.yul\":2173:2182   */\n      dup8\n        /* \"#utility.yul\":2169:2191   */\n      add\n        /* \"#utility.yul\":2148:2201   */\n      tag_42\n      jump\t// in\n    tag_79:\n        /* \"#utility.yul\":2138:2201   */\n      swap4\n      pop\n        /* \"#utility.yul\":2094:2211   */\n      pop\n        /* \"#utility.yul\":2250:2252   */\n      0x20\n        /* \"#utility.yul\":2276:2329   */\n      tag_80\n        /* \"#utility.yul\":2321:2328   */\n      dup7\n        /* \"#utility.yul\":2312:2318   */\n      dup3\n        /* \"#utility.yul\":2301:2310   */\n      dup8\n        /* \"#utility.yul\":2297:2319   */\n      add\n        /* \"#utility.yul\":2276:2329   */\n      tag_42\n      jump\t// in\n    tag_80:\n        /* \"#utility.yul\":2266:2329   */\n      swap3\n      pop\n        /* \"#utility.yul\":2221:2339   */\n      pop\n        /* \"#utility.yul\":2378:2380   */\n      0x40\n        /* \"#utility.yul\":2404:2454   */\n      tag_81\n        /* \"#utility.yul\":2446:2453   */\n      dup7\n        /* \"#utility.yul\":2437:2443   */\n      dup3\n        /* \"#utility.yul\":2426:2435   */\n      dup8\n        /* \"#utility.yul\":2422:2444   */\n      add\n        /* \"#utility.yul\":2404:2454   */\n      tag_46\n      jump\t// in\n    tag_81:\n        /* \"#utility.yul\":2394:2454   */\n      swap2\n      pop\n        /* \"#utility.yul\":2349:2464   */\n      pop\n        /* \"#utility.yul\":1858:2471   */\n      swap3\n      pop\n      swap3\n      pop\n      swap3\n      jump\t// out\n        /* \"#utility.yul\":2477:2806   */\n    tag_21:\n        /* \"#utility.yul\":2536:2542   */\n      0x00\n        /* \"#utility.yul\":2585:2587   */\n      0x20\n        /* \"#utility.yul\":2573:2582   */\n      dup3\n        /* \"#utility.yul\":2564:2571   */\n      dup5\n        /* \"#utility.yul\":2560:2583   */\n      sub\n        /* \"#utility.yul\":2556:2588   */\n      slt\n        /* \"#utility.yul\":2553:2672   */\n      iszero\n      tag_83\n      jumpi\n        /* \"#utility.yul\":2591:2670   */\n      tag_84\n      tag_38\n      jump\t// in\n    tag_84:\n        /* \"#utility.yul\":2553:2672   */\n    tag_83:\n        /* \"#utility.yul\":2711:2712   */\n      0x00\n        /* \"#utility.yul\":2736:2789   */\n      tag_85\n        /* \"#utility.yul\":2781:2788   */\n      dup5\n        /* \"#utility.yul\":2772:2778   */\n      dup3\n        /* \"#utility.yul\":2761:2770   */\n      dup6\n        /* \"#utility.yul\":2757:2779   */\n      add\n        /* \"#utility.yul\":2736:2789   */\n      tag_42\n      jump\t// in\n    tag_85:\n        /* \"#utility.yul\":2726:2789   */\n      swap2\n      pop\n        /* \"#utility.yul\":2682:2799   */\n      pop\n        /* \"#utility.yul\":2477:2806   */\n      swap3\n      swap2\n      pop\n      pop\n      jump\t// out\n        /* \"#utility.yul\":2812:2938   */\n    tag_47:\n        /* \"#utility.yul\":2849:2856   */\n      0x00\n        /* \"#utility.yul\":2889:2931   */\n      0xffffffffffffffffffffffffffffffffffffffff\n        /* \"#utility.yul\":2882:2887   */\n      dup3\n        /* \"#utility.yul\":2878:2932   */\n      and\n        /* \"#utility.yul\":2867:2932   */\n      swap1\n      pop\n        /* \"#utility.yul\":2812:2938   */\n      swap2\n      swap1\n      pop\n      jump\t// out\n        /* \"#utility.yul\":2944:3040   */\n    tag_48:\n        /* \"#utility.yul\":2981:2988   */\n      0x00\n        /* \"#utility.yul\":3010:3034   */\n      tag_88\n        /* \"#utility.yul\":3028:3033   */\n      dup3\n        /* \"#utility.yul\":3010:3034   */\n      tag_47\n      jump\t// in\n    tag_88:\n        /* \"#utility.yul\":2999:3034   */\n      swap1\n      pop\n        /* \"#utility.yul\":2944:3040   */\n      swap2\n      swap1\n      pop\n      jump\t// out\n        /* \"#utility.yul\":3046:3168   */\n    tag_49:\n        /* \"#utility.yul\":3119:3143   */\n      tag_90\n        /* \"#utility.yul\":3137:3142   */\n      dup2\n        /* \"#utility.yul\":3119:3143   */\n      tag_48\n      jump\t// in\n    tag_90:\n        /* \"#utility.yul\":3112:3117   */\n      dup2\n        /* \"#utility.yul\":3109:3144   */\n      eq\n        /* \"#utility.yul\":3099:3162   */\n      tag_91\n      jumpi\n        /* \"#utility.yul\":3158:3159   */\n      0x00\n        /* \"#utility.yul\":3155:3156   */\n      0x00\n        /* \"#utility.yul\":3148:3160   */\n      revert\n        /* \"#utility.yul\":3099:3162   */\n    tag_91:\n        /* \"#utility.yul\":3046:3168   */\n      pop\n      jump\t// out\n        /* \"#utility.yul\":3174:3313   */\n    tag_50:\n        /* \"#utility.yul\":3220:3225   */\n      0x00\n        /* \"#utility.yul\":3258:3264   */\n      dup2\n        /* \"#utility.yul\":3245:3265   */\n      calldataload\n        /* \"#utility.yul\":3236:3265   */\n      swap1\n      pop\n        /* \"#utility.yul\":3274:3307   */\n      tag_93\n        /* \"#utility.yul\":3301:3306   */\n      dup2\n        /* \"#utility.yul\":3274:3307   */\n      tag_49\n      jump\t// in\n    tag_93:\n        /* \"#utility.yul\":3174:3313   */\n      swap3\n      swap2\n      pop\n      pop\n      jump\t// out\n        /* \"#utility.yul\":3319:3648   */\n    tag_31:\n        /* \"#utility.yul\":3378:3384   */\n      0x00\n        /* \"#utility.yul\":3427:3429   */\n      0x20\n        /* \"#utility.yul\":3415:3424   */\n      dup3\n        /* \"#utility.yul\":3406:3413   */\n      dup5\n        /* \"#utility.yul\":3402:3425   */\n      sub\n        /* \"#utility.yul\":3398:3430   */\n      slt\n        /* \"#utility.yul\":3395:3514   */\n      iszero\n      tag_95\n      jumpi\n        /* \"#utility.yul\":3433:3512   */\n      tag_96\n      tag_38\n      jump\t// in\n    tag_96:\n        /* \"#utility.yul\":3395:3514   */\n    tag_95:\n        /* \"#utility.yul\":3553:3554   */\n      0x00\n        /* \"#utility.yul\":3578:3631   */\n      tag_97\n        /* \"#utility.yul\":3623:3630   */\n      dup5\n        /* \"#utility.yul\":3614:3620   */\n      dup3\n        /* \"#utility.yul\":3603:3612   */\n      dup6\n        /* \"#utility.yul\":3599:3621   */\n      add\n        /* \"#utility.yul\":3578:3631   */\n      tag_50\n      jump\t// in\n    tag_97:\n        /* \"#utility.yul\":3568:3631   */\n      swap2\n      pop\n        /* \"#utility.yul\":3524:3641   */\n      pop\n        /* \"#utility.yul\":3319:3648   */\n      swap3\n      swap2\n      pop\n      pop\n      jump\t// out\n\n    auxdata: 0xa2646970667358221220fa6d5d28fd814ee123b3816a32a741988178416d866737a477fb335462690f5464736f6c634300081e0033\n}\n",
				"bytecode": {
					"linkReferences": {},
					"object": "6080604052348015600e575f5ffd5b5061045e8061001c5f395ff3fe608060405234801561000f575f5ffd5b5060043610610060575f3560e01c8063399a52521461006457806353a403c71461009457806355241077146100b05780637c668844146100cc5780639ed326ac146100fc578063b92ba3b814610106575b5f5ffd5b61007e6004803603810190610079919061028d565b610136565b60405161008b91906102e5565b60405180910390f35b6100ae60048036038101906100a99190610328565b610160565b005b6100ca60048036038101906100c59190610378565b61019c565b005b6100e660048036038101906100e19190610378565b6101c7565b6040516100f391906102e5565b60405180910390f35b6101046101e3565b005b610120600480360381019061011b91906103fd565b610239565b60405161012d91906102e5565b60405180910390f35b6002602052815f5260405f20602052805f5260405f205f915091509054906101000a900460ff1681565b8060025f8581526020019081526020015f205f8481526020019081526020015f205f6101000a81548160ff021916908315150217905550505050565b60015f5f8381526020019081526020015f205f6101000a81548160ff02191690831515021790555050565b5f602052805f5260405f205f915054906101000a900460ff1681565b6001805f3373ffffffffffffffffffffffffffffffffffffffff1673ffffffffffffffffffffffffffffffffffffffff1681526020019081526020015f205f6101000a81548160ff021916908315150217905550565b6001602052805f5260405f205f915054906101000a900460ff1681565b5f5ffd5b5f819050919050565b61026c8161025a565b8114610276575f5ffd5b50565b5f8135905061028781610263565b92915050565b5f5f604083850312156102a3576102a2610256565b5b5f6102b085828601610279565b92505060206102c185828601610279565b9150509250929050565b5f8115159050919050565b6102df816102cb565b82525050565b5f6020820190506102f85f8301846102d6565b92915050565b610307816102cb565b8114610311575f5ffd5b50565b5f81359050610322816102fe565b92915050565b5f5f5f6060848603121561033f5761033e610256565b5b5f61034c86828701610279565b935050602061035d86828701610279565b925050604061036e86828701610314565b9150509250925092565b5f6020828403121561038d5761038c610256565b5b5f61039a84828501610279565b91505092915050565b5f73ffffffffffffffffffffffffffffffffffffffff82169050919050565b5f6103cc826103a3565b9050919050565b6103dc816103c2565b81146103e6575f5ffd5b50565b5f813590506103f7816103d3565b92915050565b5f6020828403121561041257610411610256565b5b5f61041f848285016103e9565b9150509291505056fea2646970667358221220fa6d5d28fd814ee123b3816a32a741988178416d866737a477fb335462690f5464736f6c634300081e0033",
					"opcodes": "PUSH1 0x80 PUSH1 0x40 MSTORE CALLVALUE DUP1 ISZERO PUSH1 0xE JUMPI PUSH0 PUSH0 REVERT JUMPDEST POP PUSH2 0x45E DUP1 PUSH2 0x1C PUSH0 CODECOPY PUSH0 RETURN INVALID PUSH1 0x80 PUSH1 0x40 MSTORE CALLVALUE DUP1 ISZERO PUSH2 0xF JUMPI PUSH0 PUSH0 REVERT JUMPDEST POP PUSH1 0x4 CALLDATASIZE LT PUSH2 0x60 JUMPI PUSH0 CALLDATALOAD PUSH1 0xE0 SHR DUP1 PUSH4 0x399A5252 EQ PUSH2 0x64 JUMPI DUP1 PUSH4 0x53A403C7 EQ PUSH2 0x94 JUMPI DUP1 PUSH4 0x55241077 EQ PUSH2 0xB0 JUMPI DUP1 PUSH4 0x7C668844 EQ PUSH2 0xCC JUMPI DUP1 PUSH4 0x9ED326AC EQ PUSH2 0xFC JUMPI DUP1 PUSH4 0xB92BA3B8 EQ PUSH2 0x106 JUMPI JUMPDEST PUSH0 PUSH0 REVERT JUMPDEST PUSH2 0x7E PUSH1 0x4 DUP1 CALLDATASIZE SUB DUP2 ADD SWAP1 PUSH2 0x79 SWAP2 SWAP1 PUSH2 0x28D JUMP JUMPDEST PUSH2 0x136 JUMP JUMPDEST PUSH1 0x40 MLOAD PUSH2 0x8B SWAP2 SWAP1 PUSH2 0x2E5 JUMP JUMPDEST PUSH1 0x40 MLOAD DUP1 SWAP2 SUB SWAP1 RETURN JUMPDEST PUSH2 0xAE PUSH1 0x4 DUP1 CALLDATASIZE SUB DUP2 ADD SWAP1 PUSH2 0xA9 SWAP2 SWAP1 PUSH2 0x328 JUMP JUMPDEST PUSH2 0x160 JUMP JUMPDEST STOP JUMPDEST PUSH2 0xCA PUSH1 0x4 DUP1 CALLDATASIZE SUB DUP2 ADD SWAP1 PUSH2 0xC5 SWAP2 SWAP1 PUSH2 0x378 JUMP JUMPDEST PUSH2 0x19C JUMP JUMPDEST STOP JUMPDEST PUSH2 0xE6 PUSH1 0x4 DUP1 CALLDATASIZE SUB DUP2 ADD SWAP1 PUSH2 0xE1 SWAP2 SWAP1 PUSH2 0x378 JUMP JUMPDEST PUSH2 0x1C7 JUMP JUMPDEST PUSH1 0x40 MLOAD PUSH2 0xF3 SWAP2 SWAP1 PUSH2 0x2E5 JUMP JUMPDEST PUSH1 0x40 MLOAD DUP1 SWAP2 SUB SWAP1 RETURN JUMPDEST PUSH2 0x104 PUSH2 0x1E3 JUMP JUMPDEST STOP JUMPDEST PUSH2 0x120 PUSH1 0x4 DUP1 CALLDATASIZE SUB DUP2 ADD SWAP1 PUSH2 0x11B SWAP2 SWAP1 PUSH2 0x3FD JUMP JUMPDEST PUSH2 0x239 JUMP JUMPDEST PUSH1 0x40 MLOAD PUSH2 0x12D SWAP2 SWAP1 PUSH2 0x2E5 JUMP JUMPDEST PUSH1 0x40 MLOAD DUP1 SWAP2 SUB SWAP1 RETURN JUMPDEST PUSH1 0x2 PUSH1 0x20 MSTORE DUP2 PUSH0 MSTORE PUSH1 0x40 PUSH0 KECCAK256 PUSH1 0x20 MSTORE DUP1 PUSH0 MSTORE PUSH1 0x40 PUSH0 KECCAK256 PUSH0 SWAP2 POP SWAP2 POP SWAP1 SLOAD SWAP1 PUSH2 0x100 EXP SWAP1 DIV PUSH1 0xFF AND DUP2 JUMP JUMPDEST DUP1 PUSH1 0x2 PUSH0 DUP6 DUP2 MSTORE PUSH1 0x20 ADD SWAP1 DUP2 MSTORE PUSH1 0x20 ADD PUSH0 KECCAK256 PUSH0 DUP5 DUP2 MSTORE PUSH1 0x20 ADD SWAP1 DUP2 MSTORE PUSH1 0x20 ADD PUSH0 KECCAK256 PUSH0 PUSH2 0x100 EXP DUP2 SLOAD DUP2 PUSH1 0xFF MUL NOT AND SWAP1 DUP4 ISZERO ISZERO MUL OR SWAP1 SSTORE POP POP POP POP JUMP JUMPDEST PUSH1 0x1 PUSH0 PUSH0 DUP4 DUP2 MSTORE PUSH1 0x20 ADD SWAP1 DUP2 MSTORE PUSH1 0x20 ADD PUSH0 KECCAK256 PUSH0 PUSH2 0x100 EXP DUP2 SLOAD DUP2 PUSH1 0xFF MUL NOT AND SWAP1 DUP4 ISZERO ISZERO MUL OR SWAP1 SSTORE POP POP JUMP JUMPDEST PUSH0 PUSH1 0x20 MSTORE DUP1 PUSH0 MSTORE PUSH1 0x40 PUSH0 KECCAK256 PUSH0 SWAP2 POP SLOAD SWAP1 PUSH2 0x100 EXP SWAP1 DIV PUSH1 0xFF AND DUP2 JUMP JUMPDEST PUSH1 0x1 DUP1 PUSH0 CALLER PUSH20 0xFFFFFFFFFFFFFFFFFFFFFFFFFFFFFFFFFFFFFFFF AND PUSH20 0xFFFFFFFFFFFFFFFFFFFFFFFFFFFFFFFFFFFFFFFF AND DUP2 MSTORE PUSH1 0x20 ADD SWAP1 DUP2 MSTORE PUSH1 0x20 ADD PUSH0 KECCAK256 PUSH0 PUSH2 0x100 EXP DUP2 SLOAD DUP2 PUSH1 0xFF MUL NOT AND SWAP1 DUP4 ISZERO ISZERO MUL OR SWAP1 SSTORE POP JUMP JUMPDEST PUSH1 0x1 PUSH1 0x20 MSTORE DUP1 PUSH0 MSTORE PUSH1 0x40 PUSH0 KECCAK256 PUSH0 SWAP2 POP SLOAD SWAP1 PUSH2 0x100 EXP SWAP1 DIV PUSH1 0xFF AND DUP2 JUMP JUMPDEST PUSH0 PUSH0 REVERT JUMPDEST PUSH0 DUP2 SWAP1 POP SWAP2 SWAP1 POP JUMP JUMPDEST PUSH2 0x26C DUP2 PUSH2 0x25A JUMP JUMPDEST DUP2 EQ PUSH2 0x276 JUMPI PUSH0 PUSH0 REVERT JUMPDEST POP JUMP JUMPDEST PUSH0 DUP2 CALLDATALOAD SWAP1 POP PUSH2 0x287 DUP2 PUSH2 0x263 JUMP JUMPDEST SWAP3 SWAP2 POP POP JUMP JUMPDEST PUSH0 PUSH0 PUSH1 0x40 DUP4 DUP6 SUB SLT ISZERO PUSH2 0x2A3 JUMPI PUSH2 0x2A2 PUSH2 0x256 JUMP JUMPDEST JUMPDEST PUSH0 PUSH2 0x2B0 DUP6 DUP3 DUP7 ADD PUSH2 0x279 JUMP JUMPDEST SWAP3 POP POP PUSH1 0x20 PUSH2 0x2C1 DUP6 DUP3 DUP7 ADD PUSH2 0x279 JUMP JUMPDEST SWAP2 POP POP SWAP3 POP SWAP3 SWAP1 POP JUMP JUMPDEST PUSH0 DUP2 ISZERO ISZERO SWAP1 POP SWAP2 SWAP1 POP JUMP JUMPDEST PUSH2 0x2DF DUP2 PUSH2 0x2CB JUMP JUMPDEST DUP3 MSTORE POP POP JUMP JUMPDEST PUSH0 PUSH1 0x20 DUP3 ADD SWAP1 POP PUSH2 0x2F8 PUSH0 DUP4 ADD DUP5 PUSH2 0x2D6 JUMP JUMPDEST SWAP3 SWAP2 POP POP JUMP JUMPDEST PUSH2 0x307 DUP2 PUSH2 0x2CB JUMP JUMPDEST DUP2 EQ PUSH2 0x311 JUMPI PUSH0 PUSH0 REVERT JUMPDEST POP JUMP JUMPDEST PUSH0 DUP2 CALLDATALOAD SWAP1 POP PUSH2 0x322 DUP2 PUSH2 0x2FE JUMP JUMPDEST SWAP3 SWAP2 POP POP JUMP JUMPDEST PUSH0 PUSH0 PUSH0 PUSH1 0x60 DUP5 DUP7 SUB SLT ISZERO PUSH2 0x33F JUMPI PUSH2 0x33E PUSH2 0x256 JUMP JUMPDEST JUMPDEST PUSH0 PUSH2 0x34C DUP7 DUP3 DUP8 ADD PUSH2 0x279 JUMP JUMPDEST SWAP4 POP POP PUSH1 0x20 PUSH2 0x35D DUP7 DUP3 DUP8 ADD PUSH2 0x279 JUMP JUMPDEST SWAP3 POP POP PUSH1 0x40 PUSH2 0x36E DUP7 DUP3 DUP8 ADD PUSH2 0x314 JUMP JUMPDEST SWAP2 POP POP SWAP3 POP SWAP3 POP SWAP3 JUMP JUMPDEST PUSH0 PUSH1 0x20 DUP3 DUP5 SUB SLT ISZERO PUSH2 0x38D JUMPI PUSH2 0x38C PUSH2 0x256 JUMP JUMPDEST JUMPDEST PUSH0 PUSH2 0x39A DUP5 DUP3 DUP6 ADD PUSH2 0x279 JUMP JUMPDEST SWAP2 POP POP SWAP3 SWAP2 POP POP JUMP JUMPDEST PUSH0 PUSH20 0xFFFFFFFFFFFFFFFFFFFFFFFFFFFFFFFFFFFFFFFF DUP3 AND SWAP1 POP SWAP2 SWAP1 POP JUMP JUMPDEST PUSH0 PUSH2 0x3CC DUP3 PUSH2 0x3A3 JUMP JUMPDEST SWAP1 POP SWAP2 SWAP1 POP JUMP JUMPDEST PUSH2 0x3DC DUP2 PUSH2 0x3C2 JUMP JUMPDEST DUP2 EQ PUSH2 0x3E6 JUMPI PUSH0 PUSH0 REVERT JUMPDEST POP JUMP JUMPDEST PUSH0 DUP2 CALLDATALOAD SWAP1 POP PUSH2 0x3F7 DUP2 PUSH2 0x3D3 JUMP JUMPDEST SWAP3 SWAP2 POP POP JUMP JUMPDEST PUSH0 PUSH1 0x20 DUP3 DUP5 SUB SLT ISZERO PUSH2 0x412 JUMPI PUSH2 0x411 PUSH2 0x256 JUMP JUMPDEST JUMPDEST PUSH0 PUSH2 0x41F DUP5 DUP3 DUP6 ADD PUSH2 0x3E9 JUMP JUMPDEST SWAP2 POP POP SWAP3 SWAP2 POP POP JUMP INVALID LOG2 PUSH5 0x6970667358 0x22 SLT KECCAK256 STATICCALL PUSH14 0x5D28FD814EE123B3816A32A74198 DUP2 PUSH25 0x416D866737A477FB335462690F5464736F6C634300081E0033 "
				},
				"gasEstimates": {
					"creation": {
						"codeDepositCost": "223600",
						"executionCost": "261",
						"totalCost": "223861"
					},
					"external": {
						"myAddressMapping(address)": "2921",
						"myMapping(uint256)": "2828",
						"setMyAdressToTrue()": "24562",
						"setUintAdress(uint256,uint256,bool)": "infinite",
						"setValue(uint256)": "24764",
						"unitBoolMap(uint256,uint256)": "infinite"
					}
				},
				"methodIdentifiers": {
					"myAddressMapping(address)": "b92ba3b8",
					"myMapping(uint256)": "7c668844",
					"setMyAdressToTrue()": "9ed326ac",
					"setUintAdress(uint256,uint256,bool)": "53a403c7",
					"setValue(uint256)": "55241077",
					"unitBoolMap(uint256,uint256)": "399a5252"
				}
			},
			"storageLayout": {
				"storage": [
					{
						"astId": 5,
						"contract": "contracts/ExampleMapping.sol:ExampleMapping",
						"label": "myMapping",
						"offset": 0,
						"slot": "0",
						"type": "t_mapping(t_uint256,t_bool)"
					},
					{
						"astId": 9,
						"contract": "contracts/ExampleMapping.sol:ExampleMapping",
						"label": "myAddressMapping",
						"offset": 0,
						"slot": "1",
						"type": "t_mapping(t_address,t_bool)"
					},
					{
						"astId": 15,
						"contract": "contracts/ExampleMapping.sol:ExampleMapping",
						"label": "unitBoolMap",
						"offset": 0,
						"slot": "2",
						"type": "t_mapping(t_uint256,t_mapping(t_uint256,t_bool))"
					}
				],
				"types": {
					"t_address": {
						"encoding": "inplace",
						"label": "address",
						"numberOfBytes": "20"
					},
					"t_bool": {
						"encoding": "inplace",
						"label": "bool",
						"numberOfBytes": "1"
					},
					"t_mapping(t_address,t_bool)": {
						"encoding": "mapping",
						"key": "t_address",
						"label": "mapping(address => bool)",
						"numberOfBytes": "32",
						"value": "t_bool"
					},
					"t_mapping(t_uint256,t_bool)": {
						"encoding": "mapping",
						"key": "t_uint256",
						"label": "mapping(uint256 => bool)",
						"numberOfBytes": "32",
						"value": "t_bool"
					},
					"t_mapping(t_uint256,t_mapping(t_uint256,t_bool))": {
						"encoding": "mapping",
						"key": "t_uint256",
						"label": "mapping(uint256 => mapping(uint256 => bool))",
						"numberOfBytes": "32",
						"value": "t_mapping(t_uint256,t_bool)"
					},
					"t_uint256": {
						"encoding": "inplace",
						"label": "uint256",
						"numberOfBytes": "32"
					}
				}
			},
			"userdoc": {
				"kind": "user",
				"methods": {},
				"version": 1
			}
		}
	}
}